{
  "address": "0xfb351c16A3A44BAD778CADD09eB16098E37Db34F",
  "abi": [
    {
      "inputs": [
        {
          "internalType": "string",
          "name": "name",
          "type": "string"
        },
        {
          "internalType": "string",
          "name": "symbol",
          "type": "string"
        }
      ],
      "stateMutability": "nonpayable",
      "type": "constructor"
    },
    {
      "anonymous": false,
      "inputs": [
        {
          "indexed": true,
          "internalType": "address",
          "name": "owner",
          "type": "address"
        },
        {
          "indexed": true,
          "internalType": "address",
          "name": "approved",
          "type": "address"
        },
        {
          "indexed": true,
          "internalType": "uint256",
          "name": "tokenId",
          "type": "uint256"
        }
      ],
      "name": "Approval",
      "type": "event"
    },
    {
      "anonymous": false,
      "inputs": [
        {
          "indexed": true,
          "internalType": "address",
          "name": "owner",
          "type": "address"
        },
        {
          "indexed": true,
          "internalType": "address",
          "name": "operator",
          "type": "address"
        },
        {
          "indexed": false,
          "internalType": "bool",
          "name": "approved",
          "type": "bool"
        }
      ],
      "name": "ApprovalForAll",
      "type": "event"
    },
    {
      "anonymous": false,
      "inputs": [
        {
          "indexed": true,
          "internalType": "address",
          "name": "from",
          "type": "address"
        },
        {
          "indexed": true,
          "internalType": "address",
          "name": "to",
          "type": "address"
        },
        {
          "indexed": true,
          "internalType": "uint256",
          "name": "tokenId",
          "type": "uint256"
        }
      ],
      "name": "Transfer",
      "type": "event"
    },
    {
      "inputs": [
        {
          "internalType": "uint256",
          "name": "eventId",
          "type": "uint256"
        },
        {
          "internalType": "string",
          "name": "_eventURI",
          "type": "string"
        }
      ],
      "name": "_setEventURI",
      "outputs": [],
      "stateMutability": "nonpayable",
      "type": "function"
    },
    {
      "inputs": [
        {
          "internalType": "uint256",
          "name": "TokenId",
          "type": "uint256"
        },
        {
          "internalType": "uint256",
          "name": "EventId",
          "type": "uint256"
        },
        {
          "internalType": "string",
          "name": "_tokenURI",
          "type": "string"
        }
      ],
      "name": "_setTokenEvent",
      "outputs": [],
      "stateMutability": "nonpayable",
      "type": "function"
    },
    {
      "inputs": [
        {
          "internalType": "address",
          "name": "to",
          "type": "address"
        },
        {
          "internalType": "uint256",
          "name": "tokenId",
          "type": "uint256"
        }
      ],
      "name": "approve",
      "outputs": [],
      "stateMutability": "nonpayable",
      "type": "function"
    },
    {
      "inputs": [
        {
          "internalType": "address",
          "name": "owner",
          "type": "address"
        }
      ],
      "name": "balanceOf",
      "outputs": [
        {
          "internalType": "uint256",
          "name": "",
          "type": "uint256"
        }
      ],
      "stateMutability": "view",
      "type": "function"
    },
    {
      "inputs": [
        {
          "internalType": "address",
          "name": "_claimer",
          "type": "address"
        },
        {
          "internalType": "uint256",
          "name": "eventId",
          "type": "uint256"
        },
        {
          "internalType": "uint256",
          "name": "tokentId",
          "type": "uint256"
        },
        {
          "internalType": "string",
          "name": "_tokenURI",
          "type": "string"
        }
      ],
      "name": "claimToken",
      "outputs": [
        {
          "internalType": "uint256",
          "name": "",
          "type": "uint256"
        }
      ],
      "stateMutability": "nonpayable",
      "type": "function"
    },
    {
      "inputs": [
        {
          "internalType": "string",
          "name": "_eventURI",
          "type": "string"
        }
      ],
      "name": "createEvent",
      "outputs": [
        {
          "internalType": "uint256",
          "name": "",
          "type": "uint256"
        }
      ],
      "stateMutability": "nonpayable",
      "type": "function"
    },
    {
      "inputs": [
        {
          "internalType": "uint256",
          "name": "eventId",
          "type": "uint256"
        }
      ],
      "name": "eventURI",
      "outputs": [
        {
          "internalType": "string",
          "name": "",
          "type": "string"
        }
      ],
      "stateMutability": "view",
      "type": "function"
    },
    {
      "inputs": [
        {
          "internalType": "uint256",
          "name": "tokenId",
          "type": "uint256"
        }
      ],
      "name": "getApproved",
      "outputs": [
        {
          "internalType": "address",
          "name": "",
          "type": "address"
        }
      ],
      "stateMutability": "view",
      "type": "function"
    },
    {
      "inputs": [
        {
          "internalType": "address",
          "name": "owner",
          "type": "address"
        },
        {
          "internalType": "address",
          "name": "operator",
          "type": "address"
        }
      ],
      "name": "isApprovedForAll",
      "outputs": [
        {
          "internalType": "bool",
          "name": "",
          "type": "bool"
        }
      ],
      "stateMutability": "view",
      "type": "function"
    },
    {
      "inputs": [],
      "name": "name",
      "outputs": [
        {
          "internalType": "string",
          "name": "",
          "type": "string"
        }
      ],
      "stateMutability": "view",
      "type": "function"
    },
    {
      "inputs": [
        {
          "internalType": "uint256",
          "name": "tokenId",
          "type": "uint256"
        }
      ],
      "name": "ownerOf",
      "outputs": [
        {
          "internalType": "address",
          "name": "",
          "type": "address"
        }
      ],
      "stateMutability": "view",
      "type": "function"
    },
    {
      "inputs": [
        {
          "internalType": "address",
          "name": "from",
          "type": "address"
        },
        {
          "internalType": "address",
          "name": "to",
          "type": "address"
        },
        {
          "internalType": "uint256",
          "name": "tokenId",
          "type": "uint256"
        }
      ],
      "name": "safeTransferFrom",
      "outputs": [],
      "stateMutability": "nonpayable",
      "type": "function"
    },
    {
      "inputs": [
        {
          "internalType": "address",
          "name": "from",
          "type": "address"
        },
        {
          "internalType": "address",
          "name": "to",
          "type": "address"
        },
        {
          "internalType": "uint256",
          "name": "tokenId",
          "type": "uint256"
        },
        {
          "internalType": "bytes",
          "name": "_data",
          "type": "bytes"
        }
      ],
      "name": "safeTransferFrom",
      "outputs": [],
      "stateMutability": "nonpayable",
      "type": "function"
    },
    {
      "inputs": [
        {
          "internalType": "address",
          "name": "operator",
          "type": "address"
        },
        {
          "internalType": "bool",
          "name": "approved",
          "type": "bool"
        }
      ],
      "name": "setApprovalForAll",
      "outputs": [],
      "stateMutability": "nonpayable",
      "type": "function"
    },
    {
      "inputs": [
        {
          "internalType": "bytes4",
          "name": "interfaceId",
          "type": "bytes4"
        }
      ],
      "name": "supportsInterface",
      "outputs": [
        {
          "internalType": "bool",
          "name": "",
          "type": "bool"
        }
      ],
      "stateMutability": "view",
      "type": "function"
    },
    {
      "inputs": [],
      "name": "symbol",
      "outputs": [
        {
          "internalType": "string",
          "name": "",
          "type": "string"
        }
      ],
      "stateMutability": "view",
      "type": "function"
    },
    {
      "inputs": [
        {
          "internalType": "uint256",
          "name": "tokenId",
          "type": "uint256"
        }
      ],
      "name": "tokenURI",
      "outputs": [
        {
          "internalType": "string",
          "name": "",
          "type": "string"
        }
      ],
      "stateMutability": "view",
      "type": "function"
    },
    {
      "inputs": [
        {
          "internalType": "address",
          "name": "from",
          "type": "address"
        },
        {
          "internalType": "address",
          "name": "to",
          "type": "address"
        },
        {
          "internalType": "uint256",
          "name": "tokenId",
          "type": "uint256"
        }
      ],
      "name": "transferFrom",
      "outputs": [],
      "stateMutability": "nonpayable",
      "type": "function"
    }
  ],
  "transactionHash": "0x3051e777015ff4e27d6a9906f673927934ec2eb1813cdd9433e66641d2158745",
  "args": [
    "Aurora",
    "NEAR"
  ],
  "numDeployments": 4,
  "solcInputHash": "3cf3ea4b5402dc08b8ca8403d3580fda",
  "bytecode": "0x60806040523480156200001157600080fd5b5060405162003080380380620030808339818101604052810190620000379190620001a3565b818181600090805190602001906200005192919062000075565b5080600190805190602001906200006a92919062000075565b5050505050620003ac565b8280546200008390620002bd565b90600052602060002090601f016020900481019282620000a75760008555620000f3565b82601f10620000c257805160ff1916838001178555620000f3565b82800160010185558215620000f3579182015b82811115620000f2578251825591602001919060010190620000d5565b5b50905062000102919062000106565b5090565b5b808211156200012157600081600090555060010162000107565b5090565b60006200013c620001368462000251565b62000228565b9050828152602081018484840111156200015b576200015a6200038c565b5b6200016884828562000287565b509392505050565b600082601f83011262000188576200018762000387565b5b81516200019a84826020860162000125565b91505092915050565b60008060408385031215620001bd57620001bc62000396565b5b600083015167ffffffffffffffff811115620001de57620001dd62000391565b5b620001ec8582860162000170565b925050602083015167ffffffffffffffff81111562000210576200020f62000391565b5b6200021e8582860162000170565b9150509250929050565b60006200023462000247565b9050620002428282620002f3565b919050565b6000604051905090565b600067ffffffffffffffff8211156200026f576200026e62000358565b5b6200027a826200039b565b9050602081019050919050565b60005b83811015620002a75780820151818401526020810190506200028a565b83811115620002b7576000848401525b50505050565b60006002820490506001821680620002d657607f821691505b60208210811415620002ed57620002ec62000329565b5b50919050565b620002fe826200039b565b810181811067ffffffffffffffff8211171562000320576200031f62000358565b5b80604052505050565b7f4e487b7100000000000000000000000000000000000000000000000000000000600052602260045260246000fd5b7f4e487b7100000000000000000000000000000000000000000000000000000000600052604160045260246000fd5b600080fd5b600080fd5b600080fd5b600080fd5b6000601f19601f8301169050919050565b612cc480620003bc6000396000f3fe608060405234801561001057600080fd5b50600436106101165760003560e01c806370a08231116100a2578063a22cb46511610071578063a22cb46514610303578063b88d4fde1461031f578063c22aac201461033b578063c87b56dd1461036b578063e985e9c51461039b57610116565b806370a082311461025557806395d89b41146102855780639bc2bc71146102a3578063a0fd0c6a146102d357610116565b80631cd043d6116100e95780631cd043d6146101b557806323b872dd146101d15780633592dd80146101ed57806342842e0e146102095780636352211e1461022557610116565b806301ffc9a71461011b57806306fdde031461014b578063081812fc14610169578063095ea7b314610199575b600080fd5b61013560048036038101906101309190611d32565b6103cb565b6040516101429190612212565b60405180910390f35b6101536104ad565b604051610160919061222d565b60405180910390f35b610183600480360381019061017e9190611dd5565b61053f565b60405161019091906121ab565b60405180910390f35b6101b360048036038101906101ae9190611c6f565b6105c4565b005b6101cf60048036038101906101ca9190611e02565b6106dc565b005b6101eb60048036038101906101e69190611b59565b610708565b005b61020760048036038101906102029190611e5e565b610768565b005b610223600480360381019061021e9190611b59565b6107ac565b005b61023f600480360381019061023a9190611dd5565b6107cc565b60405161024c91906121ab565b60405180910390f35b61026f600480360381019061026a9190611aec565b61087e565b60405161027c919061240f565b60405180910390f35b61028d610936565b60405161029a919061222d565b60405180910390f35b6102bd60048036038101906102b89190611d8c565b6109c8565b6040516102ca919061240f565b60405180910390f35b6102ed60048036038101906102e89190611dd5565b6109f8565b6040516102fa919061222d565b60405180910390f35b61031d60048036038101906103189190611c2f565b610a9d565b005b61033960048036038101906103349190611bac565b610ab3565b005b61035560048036038101906103509190611caf565b610b15565b604051610362919061240f565b60405180910390f35b61038560048036038101906103809190611dd5565b610b53565b604051610392919061222d565b60405180910390f35b6103b560048036038101906103b09190611b19565b610bfa565b6040516103c29190612212565b60405180910390f35b60007f80ac58cd000000000000000000000000000000000000000000000000000000007bffffffffffffffffffffffffffffffffffffffffffffffffffffffff1916827bffffffffffffffffffffffffffffffffffffffffffffffffffffffff1916148061049657507f5b5e139f000000000000000000000000000000000000000000000000000000007bffffffffffffffffffffffffffffffffffffffffffffffffffffffff1916827bffffffffffffffffffffffffffffffffffffffffffffffffffffffff1916145b806104a657506104a582610c8e565b5b9050919050565b6060600080546104bc90612665565b80601f01602080910402602001604051908101604052809291908181526020018280546104e890612665565b80156105355780601f1061050a57610100808354040283529160200191610535565b820191906000526020600020905b81548152906001019060200180831161051857829003601f168201915b5050505050905090565b600061054a82610cf8565b610589576040517f08c379a00000000000000000000000000000000000000000000000000000000081526004016105809061238f565b60405180910390fd5b6004600083815260200190815260200160002060009054906101000a900473ffffffffffffffffffffffffffffffffffffffff169050919050565b60006105cf826107cc565b90508073ffffffffffffffffffffffffffffffffffffffff168373ffffffffffffffffffffffffffffffffffffffff161415610640576040517f08c379a0000000000000000000000000000000000000000000000000000000008152600401610637906123cf565b60405180910390fd5b8073ffffffffffffffffffffffffffffffffffffffff1661065f610d64565b73ffffffffffffffffffffffffffffffffffffffff16148061068e575061068d81610688610d64565b610bfa565b5b6106cd576040517f08c379a00000000000000000000000000000000000000000000000000000000081526004016106c49061230f565b60405180910390fd5b6106d78383610d6c565b505050565b80600960008481526020019081526020016000209080519060200190610703929190611849565b505050565b610719610713610d64565b82610e25565b610758576040517f08c379a000000000000000000000000000000000000000000000000000000000815260040161074f906123ef565b60405180910390fd5b610763838383610f03565b505050565b604051806040016040528061077c8461116a565b815260200182815250600a60008581526020019081526020016000209060026107a69291906118cf565b50505050565b6107c783838360405180602001604052806000815250610ab3565b505050565b6000806002600084815260200190815260200160002060009054906101000a900473ffffffffffffffffffffffffffffffffffffffff169050600073ffffffffffffffffffffffffffffffffffffffff168173ffffffffffffffffffffffffffffffffffffffff161415610875576040517f08c379a000000000000000000000000000000000000000000000000000000000815260040161086c9061234f565b60405180910390fd5b80915050919050565b60008073ffffffffffffffffffffffffffffffffffffffff168273ffffffffffffffffffffffffffffffffffffffff1614156108ef576040517f08c379a00000000000000000000000000000000000000000000000000000000081526004016108e69061232f565b60405180910390fd5b600360008373ffffffffffffffffffffffffffffffffffffffff1673ffffffffffffffffffffffffffffffffffffffff168152602001908152602001600020549050919050565b60606001805461094590612665565b80601f016020809104026020016040519081016040528092919081815260200182805461097190612665565b80156109be5780601f10610993576101008083540402835291602001916109be565b820191906000526020600020905b8154815290600101906020018083116109a157829003601f168201915b5050505050905090565b60006109d6600754836106dc565b600760008154809291906109e9906126c8565b91905055506007549050919050565b6060600960008381526020019081526020016000208054610a1890612665565b80601f0160208091040260200160405190810160405280929190818152602001828054610a4490612665565b8015610a915780601f10610a6657610100808354040283529160200191610a91565b820191906000526020600020905b815481529060010190602001808311610a7457829003601f168201915b50505050509050919050565b610aaf610aa8610d64565b83836112cb565b5050565b610ac4610abe610d64565b83610e25565b610b03576040517f08c379a0000000000000000000000000000000000000000000000000000000008152600401610afa906123ef565b60405180910390fd5b610b0f84848484611438565b50505050565b6000610b2385600654611494565b610b2e838584610768565b60066000815480929190610b41906126c8565b91905055506006549050949350505050565b6060610b5e82610cf8565b610b9d576040517f08c379a0000000000000000000000000000000000000000000000000000000008152600401610b94906123af565b60405180910390fd5b6000610ba761166e565b90506000815111610bc75760405180602001604052806000815250610bf2565b80610bd18461116a565b604051602001610be2929190612187565b6040516020818303038152906040525b915050919050565b6000600560008473ffffffffffffffffffffffffffffffffffffffff1673ffffffffffffffffffffffffffffffffffffffff16815260200190815260200160002060008373ffffffffffffffffffffffffffffffffffffffff1673ffffffffffffffffffffffffffffffffffffffff16815260200190815260200160002060009054906101000a900460ff16905092915050565b60007f01ffc9a7000000000000000000000000000000000000000000000000000000007bffffffffffffffffffffffffffffffffffffffffffffffffffffffff1916827bffffffffffffffffffffffffffffffffffffffffffffffffffffffff1916149050919050565b60008073ffffffffffffffffffffffffffffffffffffffff166002600084815260200190815260200160002060009054906101000a900473ffffffffffffffffffffffffffffffffffffffff1673ffffffffffffffffffffffffffffffffffffffff1614159050919050565b600033905090565b816004600083815260200190815260200160002060006101000a81548173ffffffffffffffffffffffffffffffffffffffff021916908373ffffffffffffffffffffffffffffffffffffffff160217905550808273ffffffffffffffffffffffffffffffffffffffff16610ddf836107cc565b73ffffffffffffffffffffffffffffffffffffffff167f8c5be1e5ebec7d5bd14f71427d1e84f3dd0314c0f7b2291e5b200ac8c7c3b92560405160405180910390a45050565b6000610e3082610cf8565b610e6f576040517f08c379a0000000000000000000000000000000000000000000000000000000008152600401610e66906122ef565b60405180910390fd5b6000610e7a836107cc565b90508073ffffffffffffffffffffffffffffffffffffffff168473ffffffffffffffffffffffffffffffffffffffff161480610ee957508373ffffffffffffffffffffffffffffffffffffffff16610ed18461053f565b73ffffffffffffffffffffffffffffffffffffffff16145b80610efa5750610ef98185610bfa565b5b91505092915050565b8273ffffffffffffffffffffffffffffffffffffffff16610f23826107cc565b73ffffffffffffffffffffffffffffffffffffffff1614610f79576040517f08c379a0000000000000000000000000000000000000000000000000000000008152600401610f709061226f565b60405180910390fd5b600073ffffffffffffffffffffffffffffffffffffffff168273ffffffffffffffffffffffffffffffffffffffff161415610fe9576040517f08c379a0000000000000000000000000000000000000000000000000000000008152600401610fe0906122af565b60405180910390fd5b610ff4838383611685565b610fff600082610d6c565b6001600360008573ffffffffffffffffffffffffffffffffffffffff1673ffffffffffffffffffffffffffffffffffffffff168152602001908152602001600020600082825461104f919061257b565b925050819055506001600360008473ffffffffffffffffffffffffffffffffffffffff1673ffffffffffffffffffffffffffffffffffffffff16815260200190815260200160002060008282546110a691906124f4565b92505081905550816002600083815260200190815260200160002060006101000a81548173ffffffffffffffffffffffffffffffffffffffff021916908373ffffffffffffffffffffffffffffffffffffffff160217905550808273ffffffffffffffffffffffffffffffffffffffff168473ffffffffffffffffffffffffffffffffffffffff167fddf252ad1be2c89b69c2b068fc378daa952ba7f163c4a11628f55a4df523b3ef60405160405180910390a461116583838361168a565b505050565b606060008214156111b2576040518060400160405280600181526020017f300000000000000000000000000000000000000000000000000000000000000081525090506112c6565b600082905060005b600082146111e45780806111cd906126c8565b915050600a826111dd919061254a565b91506111ba565b60008167ffffffffffffffff811115611200576111ff6127fe565b5b6040519080825280601f01601f1916602001820160405280156112325781602001600182028036833780820191505090505b5090505b600085146112bf5760018261124b919061257b565b9150600a8561125a9190612711565b603061126691906124f4565b60f81b81838151811061127c5761127b6127cf565b5b60200101907effffffffffffffffffffffffffffffffffffffffffffffffffffffffffffff1916908160001a905350600a856112b8919061254a565b9450611236565b8093505050505b919050565b8173ffffffffffffffffffffffffffffffffffffffff168373ffffffffffffffffffffffffffffffffffffffff16141561133a576040517f08c379a0000000000000000000000000000000000000000000000000000000008152600401611331906122cf565b60405180910390fd5b80600560008573ffffffffffffffffffffffffffffffffffffffff1673ffffffffffffffffffffffffffffffffffffffff16815260200190815260200160002060008473ffffffffffffffffffffffffffffffffffffffff1673ffffffffffffffffffffffffffffffffffffffff16815260200190815260200160002060006101000a81548160ff0219169083151502179055508173ffffffffffffffffffffffffffffffffffffffff168373ffffffffffffffffffffffffffffffffffffffff167f17307eab39ab6107e8899845ad3d59bd9653f200f220920489ca2b5937696c318360405161142b9190612212565b60405180910390a3505050565b611443848484610f03565b61144f8484848461168f565b61148e576040517f08c379a00000000000000000000000000000000000000000000000000000000081526004016114859061224f565b60405180910390fd5b50505050565b600073ffffffffffffffffffffffffffffffffffffffff168273ffffffffffffffffffffffffffffffffffffffff161415611504576040517f08c379a00000000000000000000000000000000000000000000000000000000081526004016114fb9061236f565b60405180910390fd5b61150d81610cf8565b1561154d576040517f08c379a00000000000000000000000000000000000000000000000000000000081526004016115449061228f565b60405180910390fd5b61155960008383611685565b6001600360008473ffffffffffffffffffffffffffffffffffffffff1673ffffffffffffffffffffffffffffffffffffffff16815260200190815260200160002060008282546115a991906124f4565b92505081905550816002600083815260200190815260200160002060006101000a81548173ffffffffffffffffffffffffffffffffffffffff021916908373ffffffffffffffffffffffffffffffffffffffff160217905550808273ffffffffffffffffffffffffffffffffffffffff16600073ffffffffffffffffffffffffffffffffffffffff167fddf252ad1be2c89b69c2b068fc378daa952ba7f163c4a11628f55a4df523b3ef60405160405180910390a461166a6000838361168a565b5050565b606060405180602001604052806000815250905090565b505050565b505050565b60006116b08473ffffffffffffffffffffffffffffffffffffffff16611826565b15611819578373ffffffffffffffffffffffffffffffffffffffff1663150b7a026116d9610d64565b8786866040518563ffffffff1660e01b81526004016116fb94939291906121c6565b602060405180830381600087803b15801561171557600080fd5b505af192505050801561174657506040513d601f19601f820116820180604052508101906117439190611d5f565b60015b6117c9573d8060008114611776576040519150601f19603f3d011682016040523d82523d6000602084013e61177b565b606091505b506000815114156117c1576040517f08c379a00000000000000000000000000000000000000000000000000000000081526004016117b89061224f565b60405180910390fd5b805181602001fd5b63150b7a0260e01b7bffffffffffffffffffffffffffffffffffffffffffffffffffffffff1916817bffffffffffffffffffffffffffffffffffffffffffffffffffffffff19161491505061181e565b600190505b949350505050565b6000808273ffffffffffffffffffffffffffffffffffffffff163b119050919050565b82805461185590612665565b90600052602060002090601f01602090048101928261187757600085556118be565b82601f1061189057805160ff19168380011785556118be565b828001600101855582156118be579182015b828111156118bd5782518255916020019190600101906118a2565b5b5090506118cb9190611922565b5090565b8260028101928215611911579160200282015b82811115611910578251829080519060200190611900929190611849565b50916020019190600101906118e2565b5b50905061191e919061193f565b5090565b5b8082111561193b576000816000905550600101611923565b5090565b5b8082111561195f57600081816119569190611963565b50600101611940565b5090565b50805461196f90612665565b6000825580601f1061198157506119a0565b601f01602090049060005260206000209081019061199f9190611922565b5b50565b60006119b66119b18461244f565b61242a565b9050828152602081018484840111156119d2576119d1612832565b5b6119dd848285612623565b509392505050565b60006119f86119f384612480565b61242a565b905082815260208101848484011115611a1457611a13612832565b5b611a1f848285612623565b509392505050565b600081359050611a3681612c32565b92915050565b600081359050611a4b81612c49565b92915050565b600081359050611a6081612c60565b92915050565b600081519050611a7581612c60565b92915050565b600082601f830112611a9057611a8f61282d565b5b8135611aa08482602086016119a3565b91505092915050565b600082601f830112611abe57611abd61282d565b5b8135611ace8482602086016119e5565b91505092915050565b600081359050611ae681612c77565b92915050565b600060208284031215611b0257611b0161283c565b5b6000611b1084828501611a27565b91505092915050565b60008060408385031215611b3057611b2f61283c565b5b6000611b3e85828601611a27565b9250506020611b4f85828601611a27565b9150509250929050565b600080600060608486031215611b7257611b7161283c565b5b6000611b8086828701611a27565b9350506020611b9186828701611a27565b9250506040611ba286828701611ad7565b9150509250925092565b60008060008060808587031215611bc657611bc561283c565b5b6000611bd487828801611a27565b9450506020611be587828801611a27565b9350506040611bf687828801611ad7565b925050606085013567ffffffffffffffff811115611c1757611c16612837565b5b611c2387828801611a7b565b91505092959194509250565b60008060408385031215611c4657611c4561283c565b5b6000611c5485828601611a27565b9250506020611c6585828601611a3c565b9150509250929050565b60008060408385031215611c8657611c8561283c565b5b6000611c9485828601611a27565b9250506020611ca585828601611ad7565b9150509250929050565b60008060008060808587031215611cc957611cc861283c565b5b6000611cd787828801611a27565b9450506020611ce887828801611ad7565b9350506040611cf987828801611ad7565b925050606085013567ffffffffffffffff811115611d1a57611d19612837565b5b611d2687828801611aa9565b91505092959194509250565b600060208284031215611d4857611d4761283c565b5b6000611d5684828501611a51565b91505092915050565b600060208284031215611d7557611d7461283c565b5b6000611d8384828501611a66565b91505092915050565b600060208284031215611da257611da161283c565b5b600082013567ffffffffffffffff811115611dc057611dbf612837565b5b611dcc84828501611aa9565b91505092915050565b600060208284031215611deb57611dea61283c565b5b6000611df984828501611ad7565b91505092915050565b60008060408385031215611e1957611e1861283c565b5b6000611e2785828601611ad7565b925050602083013567ffffffffffffffff811115611e4857611e47612837565b5b611e5485828601611aa9565b9150509250929050565b600080600060608486031215611e7757611e7661283c565b5b6000611e8586828701611ad7565b9350506020611e9686828701611ad7565b925050604084013567ffffffffffffffff811115611eb757611eb6612837565b5b611ec386828701611aa9565b9150509250925092565b611ed6816125af565b82525050565b611ee5816125c1565b82525050565b6000611ef6826124b1565b611f0081856124c7565b9350611f10818560208601612632565b611f1981612841565b840191505092915050565b6000611f2f826124bc565b611f3981856124d8565b9350611f49818560208601612632565b611f5281612841565b840191505092915050565b6000611f68826124bc565b611f7281856124e9565b9350611f82818560208601612632565b80840191505092915050565b6000611f9b6032836124d8565b9150611fa682612852565b604082019050919050565b6000611fbe6025836124d8565b9150611fc9826128a1565b604082019050919050565b6000611fe1601c836124d8565b9150611fec826128f0565b602082019050919050565b60006120046024836124d8565b915061200f82612919565b604082019050919050565b60006120276019836124d8565b915061203282612968565b602082019050919050565b600061204a602c836124d8565b915061205582612991565b604082019050919050565b600061206d6038836124d8565b9150612078826129e0565b604082019050919050565b6000612090602a836124d8565b915061209b82612a2f565b604082019050919050565b60006120b36029836124d8565b91506120be82612a7e565b604082019050919050565b60006120d66020836124d8565b91506120e182612acd565b602082019050919050565b60006120f9602c836124d8565b915061210482612af6565b604082019050919050565b600061211c602f836124d8565b915061212782612b45565b604082019050919050565b600061213f6021836124d8565b915061214a82612b94565b604082019050919050565b60006121626031836124d8565b915061216d82612be3565b604082019050919050565b61218181612619565b82525050565b60006121938285611f5d565b915061219f8284611f5d565b91508190509392505050565b60006020820190506121c06000830184611ecd565b92915050565b60006080820190506121db6000830187611ecd565b6121e86020830186611ecd565b6121f56040830185612178565b81810360608301526122078184611eeb565b905095945050505050565b60006020820190506122276000830184611edc565b92915050565b600060208201905081810360008301526122478184611f24565b905092915050565b6000602082019050818103600083015261226881611f8e565b9050919050565b6000602082019050818103600083015261228881611fb1565b9050919050565b600060208201905081810360008301526122a881611fd4565b9050919050565b600060208201905081810360008301526122c881611ff7565b9050919050565b600060208201905081810360008301526122e88161201a565b9050919050565b600060208201905081810360008301526123088161203d565b9050919050565b6000602082019050818103600083015261232881612060565b9050919050565b6000602082019050818103600083015261234881612083565b9050919050565b60006020820190508181036000830152612368816120a6565b9050919050565b60006020820190508181036000830152612388816120c9565b9050919050565b600060208201905081810360008301526123a8816120ec565b9050919050565b600060208201905081810360008301526123c88161210f565b9050919050565b600060208201905081810360008301526123e881612132565b9050919050565b6000602082019050818103600083015261240881612155565b9050919050565b60006020820190506124246000830184612178565b92915050565b6000612434612445565b90506124408282612697565b919050565b6000604051905090565b600067ffffffffffffffff82111561246a576124696127fe565b5b61247382612841565b9050602081019050919050565b600067ffffffffffffffff82111561249b5761249a6127fe565b5b6124a482612841565b9050602081019050919050565b600081519050919050565b600081519050919050565b600082825260208201905092915050565b600082825260208201905092915050565b600081905092915050565b60006124ff82612619565b915061250a83612619565b9250827fffffffffffffffffffffffffffffffffffffffffffffffffffffffffffffffff0382111561253f5761253e612742565b5b828201905092915050565b600061255582612619565b915061256083612619565b9250826125705761256f612771565b5b828204905092915050565b600061258682612619565b915061259183612619565b9250828210156125a4576125a3612742565b5b828203905092915050565b60006125ba826125f9565b9050919050565b60008115159050919050565b60007fffffffff0000000000000000000000000000000000000000000000000000000082169050919050565b600073ffffffffffffffffffffffffffffffffffffffff82169050919050565b6000819050919050565b82818337600083830152505050565b60005b83811015612650578082015181840152602081019050612635565b8381111561265f576000848401525b50505050565b6000600282049050600182168061267d57607f821691505b60208210811415612691576126906127a0565b5b50919050565b6126a082612841565b810181811067ffffffffffffffff821117156126bf576126be6127fe565b5b80604052505050565b60006126d382612619565b91507fffffffffffffffffffffffffffffffffffffffffffffffffffffffffffffffff82141561270657612705612742565b5b600182019050919050565b600061271c82612619565b915061272783612619565b92508261273757612736612771565b5b828206905092915050565b7f4e487b7100000000000000000000000000000000000000000000000000000000600052601160045260246000fd5b7f4e487b7100000000000000000000000000000000000000000000000000000000600052601260045260246000fd5b7f4e487b7100000000000000000000000000000000000000000000000000000000600052602260045260246000fd5b7f4e487b7100000000000000000000000000000000000000000000000000000000600052603260045260246000fd5b7f4e487b7100000000000000000000000000000000000000000000000000000000600052604160045260246000fd5b600080fd5b600080fd5b600080fd5b600080fd5b6000601f19601f8301169050919050565b7f4552433732313a207472616e7366657220746f206e6f6e20455243373231526560008201527f63656976657220696d706c656d656e7465720000000000000000000000000000602082015250565b7f4552433732313a207472616e736665722066726f6d20696e636f72726563742060008201527f6f776e6572000000000000000000000000000000000000000000000000000000602082015250565b7f4552433732313a20746f6b656e20616c7265616479206d696e74656400000000600082015250565b7f4552433732313a207472616e7366657220746f20746865207a65726f2061646460008201527f7265737300000000000000000000000000000000000000000000000000000000602082015250565b7f4552433732313a20617070726f766520746f2063616c6c657200000000000000600082015250565b7f4552433732313a206f70657261746f7220717565727920666f72206e6f6e657860008201527f697374656e7420746f6b656e0000000000000000000000000000000000000000602082015250565b7f4552433732313a20617070726f76652063616c6c6572206973206e6f74206f7760008201527f6e6572206e6f7220617070726f76656420666f7220616c6c0000000000000000602082015250565b7f4552433732313a2062616c616e636520717565727920666f7220746865207a6560008201527f726f206164647265737300000000000000000000000000000000000000000000602082015250565b7f4552433732313a206f776e657220717565727920666f72206e6f6e657869737460008201527f656e7420746f6b656e0000000000000000000000000000000000000000000000602082015250565b7f4552433732313a206d696e7420746f20746865207a65726f2061646472657373600082015250565b7f4552433732313a20617070726f76656420717565727920666f72206e6f6e657860008201527f697374656e7420746f6b656e0000000000000000000000000000000000000000602082015250565b7f4552433732314d657461646174613a2055524920717565727920666f72206e6f60008201527f6e6578697374656e7420746f6b656e0000000000000000000000000000000000602082015250565b7f4552433732313a20617070726f76616c20746f2063757272656e74206f776e6560008201527f7200000000000000000000000000000000000000000000000000000000000000602082015250565b7f4552433732313a207472616e736665722063616c6c6572206973206e6f74206f60008201527f776e6572206e6f7220617070726f766564000000000000000000000000000000602082015250565b612c3b816125af565b8114612c4657600080fd5b50565b612c52816125c1565b8114612c5d57600080fd5b50565b612c69816125cd565b8114612c7457600080fd5b50565b612c8081612619565b8114612c8b57600080fd5b5056fea26469706673582212206de24a1a88ffa6fb27f3faac28fcffbc5d63900225b081d842a61ce07fded87264736f6c63430008060033",
  "devdoc": {
    "kind": "dev",
    "methods": {
      "approve(address,uint256)": {
        "details": "See {IERC721-approve}."
      },
      "balanceOf(address)": {
        "details": "See {IERC721-balanceOf}."
      },
      "getApproved(uint256)": {
        "details": "See {IERC721-getApproved}."
      },
      "isApprovedForAll(address,address)": {
        "details": "See {IERC721-isApprovedForAll}."
      },
      "name()": {
        "details": "See {IERC721Metadata-name}."
      },
      "ownerOf(uint256)": {
        "details": "See {IERC721-ownerOf}."
      },
      "safeTransferFrom(address,address,uint256)": {
        "details": "See {IERC721-safeTransferFrom}."
      },
      "safeTransferFrom(address,address,uint256,bytes)": {
        "details": "See {IERC721-safeTransferFrom}."
      },
      "setApprovalForAll(address,bool)": {
        "details": "See {IERC721-setApprovalForAll}."
      },
      "supportsInterface(bytes4)": {
        "details": "See {IERC165-supportsInterface}."
      },
      "symbol()": {
        "details": "See {IERC721Metadata-symbol}."
      },
      "tokenURI(uint256)": {
        "details": "See {IERC721Metadata-tokenURI}."
      },
      "transferFrom(address,address,uint256)": {
        "details": "See {IERC721-transferFrom}."
      }
    },
    "version": 1
  },
  "userdoc": {
    "kind": "user",
    "methods": {},
    "version": 1
  },
  "storageLayout": {
    "storage": [
      {
        "astId": 25,
        "contract": "contracts/AuroraERC721.sol:AuroraERC721",
        "label": "_name",
        "offset": 0,
        "slot": "0",
        "type": "t_string_storage"
      },
      {
        "astId": 27,
        "contract": "contracts/AuroraERC721.sol:AuroraERC721",
        "label": "_symbol",
        "offset": 0,
        "slot": "1",
        "type": "t_string_storage"
      },
      {
        "astId": 31,
        "contract": "contracts/AuroraERC721.sol:AuroraERC721",
        "label": "_owners",
        "offset": 0,
        "slot": "2",
        "type": "t_mapping(t_uint256,t_address)"
      },
      {
        "astId": 35,
        "contract": "contracts/AuroraERC721.sol:AuroraERC721",
        "label": "_balances",
        "offset": 0,
        "slot": "3",
        "type": "t_mapping(t_address,t_uint256)"
      },
      {
        "astId": 39,
        "contract": "contracts/AuroraERC721.sol:AuroraERC721",
        "label": "_tokenApprovals",
        "offset": 0,
        "slot": "4",
        "type": "t_mapping(t_uint256,t_address)"
      },
      {
        "astId": 45,
        "contract": "contracts/AuroraERC721.sol:AuroraERC721",
        "label": "_operatorApprovals",
        "offset": 0,
        "slot": "5",
        "type": "t_mapping(t_address,t_mapping(t_address,t_bool))"
      },
      {
        "astId": 1590,
        "contract": "contracts/AuroraERC721.sol:AuroraERC721",
        "label": "_tokenIds",
        "offset": 0,
        "slot": "6",
        "type": "t_uint256"
      },
      {
        "astId": 1592,
        "contract": "contracts/AuroraERC721.sol:AuroraERC721",
        "label": "_eventIds",
        "offset": 0,
        "slot": "7",
        "type": "t_uint256"
      },
      {
        "astId": 1596,
        "contract": "contracts/AuroraERC721.sol:AuroraERC721",
        "label": "_tokenURIs",
        "offset": 0,
        "slot": "8",
        "type": "t_mapping(t_uint256,t_string_storage)"
      },
      {
        "astId": 1600,
        "contract": "contracts/AuroraERC721.sol:AuroraERC721",
        "label": "_eventURIs",
        "offset": 0,
        "slot": "9",
        "type": "t_mapping(t_uint256,t_string_storage)"
      },
      {
        "astId": 1606,
        "contract": "contracts/AuroraERC721.sol:AuroraERC721",
        "label": "AllEventTokens",
        "offset": 0,
        "slot": "10",
        "type": "t_mapping(t_uint256,t_array(t_string_storage)2_storage)"
      }
    ],
    "types": {
      "t_address": {
        "encoding": "inplace",
        "label": "address",
        "numberOfBytes": "20"
      },
      "t_array(t_string_storage)2_storage": {
        "base": "t_string_storage",
        "encoding": "inplace",
        "label": "string[2]",
        "numberOfBytes": "64"
      },
      "t_bool": {
        "encoding": "inplace",
        "label": "bool",
        "numberOfBytes": "1"
      },
      "t_mapping(t_address,t_bool)": {
        "encoding": "mapping",
        "key": "t_address",
        "label": "mapping(address => bool)",
        "numberOfBytes": "32",
        "value": "t_bool"
      },
      "t_mapping(t_address,t_mapping(t_address,t_bool))": {
        "encoding": "mapping",
        "key": "t_address",
        "label": "mapping(address => mapping(address => bool))",
        "numberOfBytes": "32",
        "value": "t_mapping(t_address,t_bool)"
      },
      "t_mapping(t_address,t_uint256)": {
        "encoding": "mapping",
        "key": "t_address",
        "label": "mapping(address => uint256)",
        "numberOfBytes": "32",
        "value": "t_uint256"
      },
      "t_mapping(t_uint256,t_address)": {
        "encoding": "mapping",
        "key": "t_uint256",
        "label": "mapping(uint256 => address)",
        "numberOfBytes": "32",
        "value": "t_address"
      },
      "t_mapping(t_uint256,t_array(t_string_storage)2_storage)": {
        "encoding": "mapping",
        "key": "t_uint256",
        "label": "mapping(uint256 => string[2])",
        "numberOfBytes": "32",
        "value": "t_array(t_string_storage)2_storage"
      },
      "t_mapping(t_uint256,t_string_storage)": {
        "encoding": "mapping",
        "key": "t_uint256",
        "label": "mapping(uint256 => string)",
        "numberOfBytes": "32",
        "value": "t_string_storage"
      },
      "t_string_storage": {
        "encoding": "bytes",
        "label": "string",
        "numberOfBytes": "32"
      },
      "t_uint256": {
        "encoding": "inplace",
        "label": "uint256",
        "numberOfBytes": "32"
      }
    }
  }
}