{
  "_format": "hh-sol-artifact-1",
  "contractName": "AuroraERC721",
  "sourceName": "contracts/AuroraERC721.sol",
  "abi": [
    {
      "inputs": [
        {
          "internalType": "string",
          "name": "name",
          "type": "string"
        },
        {
          "internalType": "string",
          "name": "symbol",
          "type": "string"
        }
      ],
      "stateMutability": "nonpayable",
      "type": "constructor"
    },
    {
      "anonymous": false,
      "inputs": [
        {
          "indexed": true,
          "internalType": "address",
          "name": "owner",
          "type": "address"
        },
        {
          "indexed": true,
          "internalType": "address",
          "name": "approved",
          "type": "address"
        },
        {
          "indexed": true,
          "internalType": "uint256",
          "name": "tokenId",
          "type": "uint256"
        }
      ],
      "name": "Approval",
      "type": "event"
    },
    {
      "anonymous": false,
      "inputs": [
        {
          "indexed": true,
          "internalType": "address",
          "name": "owner",
          "type": "address"
        },
        {
          "indexed": true,
          "internalType": "address",
          "name": "operator",
          "type": "address"
        },
        {
          "indexed": false,
          "internalType": "bool",
          "name": "approved",
          "type": "bool"
        }
      ],
      "name": "ApprovalForAll",
      "type": "event"
    },
    {
      "anonymous": false,
      "inputs": [
        {
          "indexed": true,
          "internalType": "address",
          "name": "from",
          "type": "address"
        },
        {
          "indexed": true,
          "internalType": "address",
          "name": "to",
          "type": "address"
        },
        {
          "indexed": true,
          "internalType": "uint256",
          "name": "tokenId",
          "type": "uint256"
        }
      ],
      "name": "Transfer",
      "type": "event"
    },
    {
      "inputs": [],
      "name": "_EventTokenSearchIds",
      "outputs": [
        {
          "internalType": "uint256",
          "name": "",
          "type": "uint256"
        }
      ],
      "stateMutability": "view",
      "type": "function"
    },
    {
      "inputs": [
        {
          "internalType": "uint256",
          "name": "",
          "type": "uint256"
        },
        {
          "internalType": "uint256",
          "name": "",
          "type": "uint256"
        }
      ],
      "name": "_SearchedStore",
      "outputs": [
        {
          "internalType": "string",
          "name": "",
          "type": "string"
        }
      ],
      "stateMutability": "view",
      "type": "function"
    },
    {
      "inputs": [
        {
          "internalType": "uint256",
          "name": "eventId",
          "type": "uint256"
        },
        {
          "internalType": "string",
          "name": "_eventURI",
          "type": "string"
        }
      ],
      "name": "_setEventURI",
      "outputs": [],
      "stateMutability": "nonpayable",
      "type": "function"
    },
    {
      "inputs": [
        {
          "internalType": "address",
          "name": "to",
          "type": "address"
        },
        {
          "internalType": "uint256",
          "name": "tokenId",
          "type": "uint256"
        }
      ],
      "name": "approve",
      "outputs": [],
      "stateMutability": "nonpayable",
      "type": "function"
    },
    {
      "inputs": [
        {
          "internalType": "address",
          "name": "owner",
          "type": "address"
        }
      ],
      "name": "balanceOf",
      "outputs": [
        {
          "internalType": "uint256",
          "name": "",
          "type": "uint256"
        }
      ],
      "stateMutability": "view",
      "type": "function"
    },
    {
      "inputs": [
        {
          "internalType": "address",
          "name": "_claimer",
          "type": "address"
        }
      ],
      "name": "claimToken",
      "outputs": [
        {
          "internalType": "uint256",
          "name": "",
          "type": "uint256"
        }
      ],
      "stateMutability": "nonpayable",
      "type": "function"
    },
    {
      "inputs": [
        {
          "internalType": "string",
          "name": "_eventURI",
          "type": "string"
        }
      ],
      "name": "createEvent",
      "outputs": [
        {
          "internalType": "uint256",
          "name": "",
          "type": "uint256"
        }
      ],
      "stateMutability": "nonpayable",
      "type": "function"
    },
    {
      "inputs": [
        {
          "internalType": "uint256",
          "name": "eventId",
          "type": "uint256"
        }
      ],
      "name": "eventURI",
      "outputs": [
        {
          "internalType": "string",
          "name": "",
          "type": "string"
        }
      ],
      "stateMutability": "view",
      "type": "function"
    },
    {
      "inputs": [
        {
          "internalType": "uint256",
          "name": "tokenId",
          "type": "uint256"
        }
      ],
      "name": "getApproved",
      "outputs": [
        {
          "internalType": "address",
          "name": "",
          "type": "address"
        }
      ],
      "stateMutability": "view",
      "type": "function"
    },
    {
      "inputs": [
        {
          "internalType": "address",
          "name": "owner",
          "type": "address"
        },
        {
          "internalType": "address",
          "name": "operator",
          "type": "address"
        }
      ],
      "name": "isApprovedForAll",
      "outputs": [
        {
          "internalType": "bool",
          "name": "",
          "type": "bool"
        }
      ],
      "stateMutability": "view",
      "type": "function"
    },
    {
      "inputs": [],
      "name": "name",
      "outputs": [
        {
          "internalType": "string",
          "name": "",
          "type": "string"
        }
      ],
      "stateMutability": "view",
      "type": "function"
    },
    {
      "inputs": [
        {
          "internalType": "uint256",
          "name": "tokenId",
          "type": "uint256"
        }
      ],
      "name": "ownerOf",
      "outputs": [
        {
          "internalType": "address",
          "name": "",
          "type": "address"
        }
      ],
      "stateMutability": "view",
      "type": "function"
    },
    {
      "inputs": [
        {
          "internalType": "address",
          "name": "from",
          "type": "address"
        },
        {
          "internalType": "address",
          "name": "to",
          "type": "address"
        },
        {
          "internalType": "uint256",
          "name": "tokenId",
          "type": "uint256"
        }
      ],
      "name": "safeTransferFrom",
      "outputs": [],
      "stateMutability": "nonpayable",
      "type": "function"
    },
    {
      "inputs": [
        {
          "internalType": "address",
          "name": "from",
          "type": "address"
        },
        {
          "internalType": "address",
          "name": "to",
          "type": "address"
        },
        {
          "internalType": "uint256",
          "name": "tokenId",
          "type": "uint256"
        },
        {
          "internalType": "bytes",
          "name": "_data",
          "type": "bytes"
        }
      ],
      "name": "safeTransferFrom",
      "outputs": [],
      "stateMutability": "nonpayable",
      "type": "function"
    },
    {
      "inputs": [
        {
          "internalType": "address",
          "name": "operator",
          "type": "address"
        },
        {
          "internalType": "bool",
          "name": "approved",
          "type": "bool"
        }
      ],
      "name": "setApprovalForAll",
      "outputs": [],
      "stateMutability": "nonpayable",
      "type": "function"
    },
    {
      "inputs": [
        {
          "internalType": "bytes4",
          "name": "interfaceId",
          "type": "bytes4"
        }
      ],
      "name": "supportsInterface",
      "outputs": [
        {
          "internalType": "bool",
          "name": "",
          "type": "bool"
        }
      ],
      "stateMutability": "view",
      "type": "function"
    },
    {
      "inputs": [],
      "name": "symbol",
      "outputs": [
        {
          "internalType": "string",
          "name": "",
          "type": "string"
        }
      ],
      "stateMutability": "view",
      "type": "function"
    },
    {
      "inputs": [
        {
          "internalType": "uint256",
          "name": "tokenId",
          "type": "uint256"
        }
      ],
      "name": "tokenURI",
      "outputs": [
        {
          "internalType": "string",
          "name": "",
          "type": "string"
        }
      ],
      "stateMutability": "view",
      "type": "function"
    },
    {
      "inputs": [
        {
          "internalType": "address",
          "name": "from",
          "type": "address"
        },
        {
          "internalType": "address",
          "name": "to",
          "type": "address"
        },
        {
          "internalType": "uint256",
          "name": "tokenId",
          "type": "uint256"
        }
      ],
      "name": "transferFrom",
      "outputs": [],
      "stateMutability": "nonpayable",
      "type": "function"
    }
  ],
  "bytecode": "0x60806040523480156200001157600080fd5b5060405162002fd038038062002fd08339818101604052810190620000379190620001a3565b818181600090805190602001906200005192919062000075565b5080600190805190602001906200006a92919062000075565b5050505050620003ac565b8280546200008390620002bd565b90600052602060002090601f016020900481019282620000a75760008555620000f3565b82601f10620000c257805160ff1916838001178555620000f3565b82800160010185558215620000f3579182015b82811115620000f2578251825591602001919060010190620000d5565b5b50905062000102919062000106565b5090565b5b808211156200012157600081600090555060010162000107565b5090565b60006200013c620001368462000251565b62000228565b9050828152602081018484840111156200015b576200015a6200038c565b5b6200016884828562000287565b509392505050565b600082601f83011262000188576200018762000387565b5b81516200019a84826020860162000125565b91505092915050565b60008060408385031215620001bd57620001bc62000396565b5b600083015167ffffffffffffffff811115620001de57620001dd62000391565b5b620001ec8582860162000170565b925050602083015167ffffffffffffffff81111562000210576200020f62000391565b5b6200021e8582860162000170565b9150509250929050565b60006200023462000247565b9050620002428282620002f3565b919050565b6000604051905090565b600067ffffffffffffffff8211156200026f576200026e62000358565b5b6200027a826200039b565b9050602081019050919050565b60005b83811015620002a75780820151818401526020810190506200028a565b83811115620002b7576000848401525b50505050565b60006002820490506001821680620002d657607f821691505b60208210811415620002ed57620002ec62000329565b5b50919050565b620002fe826200039b565b810181811067ffffffffffffffff8211171562000320576200031f62000358565b5b80604052505050565b7f4e487b7100000000000000000000000000000000000000000000000000000000600052602260045260246000fd5b7f4e487b7100000000000000000000000000000000000000000000000000000000600052604160045260246000fd5b600080fd5b600080fd5b600080fd5b600080fd5b6000601f19601f8301169050919050565b612c1480620003bc6000396000f3fe608060405234801561001057600080fd5b50600436106101215760003560e01c80636352211e116100ad578063a22cb46511610071578063a22cb46514610340578063b10a5dfa1461035c578063b88d4fde1461038c578063c87b56dd146103a8578063e985e9c5146103d857610121565b80636352211e1461026257806370a082311461029257806395d89b41146102c25780639bc2bc71146102e0578063a0fd0c6a1461031057610121565b8063144cbca6116100f4578063144cbca6146101c05780631cd043d6146101de57806323b872dd146101fa57806332f289cf1461021657806342842e0e1461024657610121565b806301ffc9a71461012657806306fdde0314610156578063081812fc14610174578063095ea7b3146101a4575b600080fd5b610140600480360381019061013b9190611cb1565b610408565b60405161014d9190612162565b60405180910390f35b61015e6104ea565b60405161016b919061217d565b60405180910390f35b61018e60048036038101906101899190611d54565b61057c565b60405161019b91906120fb565b60405180910390f35b6101be60048036038101906101b99190611c71565b610601565b005b6101c8610719565b6040516101d5919061235f565b60405180910390f35b6101f860048036038101906101f39190611d81565b61071f565b005b610214600480360381019061020f9190611b5b565b61074b565b005b610230600480360381019061022b9190611aee565b6107ab565b60405161023d919061235f565b60405180910390f35b610260600480360381019061025b9190611b5b565b6107f3565b005b61027c60048036038101906102779190611d54565b610813565b60405161028991906120fb565b60405180910390f35b6102ac60048036038101906102a79190611aee565b6108c5565b6040516102b9919061235f565b60405180910390f35b6102ca61097d565b6040516102d7919061217d565b60405180910390f35b6102fa60048036038101906102f59190611d0b565b610a0f565b604051610307919061235f565b60405180910390f35b61032a60048036038101906103259190611d54565b610a3f565b604051610337919061217d565b60405180910390f35b61035a60048036038101906103559190611c31565b610ae4565b005b61037660048036038101906103719190611ddd565b610afa565b604051610383919061217d565b60405180910390f35b6103a660048036038101906103a19190611bae565b610baa565b005b6103c260048036038101906103bd9190611d54565b610c0c565b6040516103cf919061217d565b60405180910390f35b6103f260048036038101906103ed9190611b1b565b610cb3565b6040516103ff9190612162565b60405180910390f35b60007f80ac58cd000000000000000000000000000000000000000000000000000000007bffffffffffffffffffffffffffffffffffffffffffffffffffffffff1916827bffffffffffffffffffffffffffffffffffffffffffffffffffffffff191614806104d357507f5b5e139f000000000000000000000000000000000000000000000000000000007bffffffffffffffffffffffffffffffffffffffffffffffffffffffff1916827bffffffffffffffffffffffffffffffffffffffffffffffffffffffff1916145b806104e357506104e282610d47565b5b9050919050565b6060600080546104f9906125b5565b80601f0160208091040260200160405190810160405280929190818152602001828054610525906125b5565b80156105725780601f1061054757610100808354040283529160200191610572565b820191906000526020600020905b81548152906001019060200180831161055557829003601f168201915b5050505050905090565b600061058782610db1565b6105c6576040517f08c379a00000000000000000000000000000000000000000000000000000000081526004016105bd906122df565b60405180910390fd5b6004600083815260200190815260200160002060009054906101000a900473ffffffffffffffffffffffffffffffffffffffff169050919050565b600061060c82610813565b90508073ffffffffffffffffffffffffffffffffffffffff168373ffffffffffffffffffffffffffffffffffffffff16141561067d576040517f08c379a00000000000000000000000000000000000000000000000000000000081526004016106749061231f565b60405180910390fd5b8073ffffffffffffffffffffffffffffffffffffffff1661069c610e1d565b73ffffffffffffffffffffffffffffffffffffffff1614806106cb57506106ca816106c5610e1d565b610cb3565b5b61070a576040517f08c379a00000000000000000000000000000000000000000000000000000000081526004016107019061225f565b60405180910390fd5b6107148383610e25565b505050565b600d5481565b80601360008481526020019081526020016000209080519060200190610746929190611902565b505050565b61075c610756610e1d565b82610ede565b61079b576040517f08c379a00000000000000000000000000000000000000000000000000000000081526004016107929061233f565b60405180910390fd5b6107a6838383610fbc565b505050565b60006107b982600654611223565b600660008154809291906107cc90612618565b9190505550600960008154809291906107e490612618565b91905055506006549050919050565b61080e83838360405180602001604052806000815250610baa565b505050565b6000806002600084815260200190815260200160002060009054906101000a900473ffffffffffffffffffffffffffffffffffffffff169050600073ffffffffffffffffffffffffffffffffffffffff168173ffffffffffffffffffffffffffffffffffffffff1614156108bc576040517f08c379a00000000000000000000000000000000000000000000000000000000081526004016108b39061229f565b60405180910390fd5b80915050919050565b60008073ffffffffffffffffffffffffffffffffffffffff168273ffffffffffffffffffffffffffffffffffffffff161415610936576040517f08c379a000000000000000000000000000000000000000000000000000000000815260040161092d9061227f565b60405180910390fd5b600360008373ffffffffffffffffffffffffffffffffffffffff1673ffffffffffffffffffffffffffffffffffffffff168152602001908152602001600020549050919050565b60606001805461098c906125b5565b80601f01602080910402602001604051908101604052809291908181526020018280546109b8906125b5565b8015610a055780601f106109da57610100808354040283529160200191610a05565b820191906000526020600020905b8154815290600101906020018083116109e857829003601f168201915b5050505050905090565b6000610a1d6008548361071f565b60086000815480929190610a3090612618565b91905055506008549050919050565b6060601360008381526020019081526020016000208054610a5f906125b5565b80601f0160208091040260200160405190810160405280929190818152602001828054610a8b906125b5565b8015610ad85780601f10610aad57610100808354040283529160200191610ad8565b820191906000526020600020905b815481529060010190602001808311610abb57829003601f168201915b50505050509050919050565b610af6610aef610e1d565b83836113fd565b5050565b60106020528160005260406000208160028110610b1657600080fd5b01600091509150508054610b29906125b5565b80601f0160208091040260200160405190810160405280929190818152602001828054610b55906125b5565b8015610ba25780601f10610b7757610100808354040283529160200191610ba2565b820191906000526020600020905b815481529060010190602001808311610b8557829003601f168201915b505050505081565b610bbb610bb5610e1d565b83610ede565b610bfa576040517f08c379a0000000000000000000000000000000000000000000000000000000008152600401610bf19061233f565b60405180910390fd5b610c068484848461156a565b50505050565b6060610c1782610db1565b610c56576040517f08c379a0000000000000000000000000000000000000000000000000000000008152600401610c4d906122ff565b60405180910390fd5b6000610c606115c6565b90506000815111610c805760405180602001604052806000815250610cab565b80610c8a846115dd565b604051602001610c9b9291906120d7565b6040516020818303038152906040525b915050919050565b6000600560008473ffffffffffffffffffffffffffffffffffffffff1673ffffffffffffffffffffffffffffffffffffffff16815260200190815260200160002060008373ffffffffffffffffffffffffffffffffffffffff1673ffffffffffffffffffffffffffffffffffffffff16815260200190815260200160002060009054906101000a900460ff16905092915050565b60007f01ffc9a7000000000000000000000000000000000000000000000000000000007bffffffffffffffffffffffffffffffffffffffffffffffffffffffff1916827bffffffffffffffffffffffffffffffffffffffffffffffffffffffff1916149050919050565b60008073ffffffffffffffffffffffffffffffffffffffff166002600084815260200190815260200160002060009054906101000a900473ffffffffffffffffffffffffffffffffffffffff1673ffffffffffffffffffffffffffffffffffffffff1614159050919050565b600033905090565b816004600083815260200190815260200160002060006101000a81548173ffffffffffffffffffffffffffffffffffffffff021916908373ffffffffffffffffffffffffffffffffffffffff160217905550808273ffffffffffffffffffffffffffffffffffffffff16610e9883610813565b73ffffffffffffffffffffffffffffffffffffffff167f8c5be1e5ebec7d5bd14f71427d1e84f3dd0314c0f7b2291e5b200ac8c7c3b92560405160405180910390a45050565b6000610ee982610db1565b610f28576040517f08c379a0000000000000000000000000000000000000000000000000000000008152600401610f1f9061223f565b60405180910390fd5b6000610f3383610813565b90508073ffffffffffffffffffffffffffffffffffffffff168473ffffffffffffffffffffffffffffffffffffffff161480610fa257508373ffffffffffffffffffffffffffffffffffffffff16610f8a8461057c565b73ffffffffffffffffffffffffffffffffffffffff16145b80610fb35750610fb28185610cb3565b5b91505092915050565b8273ffffffffffffffffffffffffffffffffffffffff16610fdc82610813565b73ffffffffffffffffffffffffffffffffffffffff1614611032576040517f08c379a0000000000000000000000000000000000000000000000000000000008152600401611029906121bf565b60405180910390fd5b600073ffffffffffffffffffffffffffffffffffffffff168273ffffffffffffffffffffffffffffffffffffffff1614156110a2576040517f08c379a0000000000000000000000000000000000000000000000000000000008152600401611099906121ff565b60405180910390fd5b6110ad83838361173e565b6110b8600082610e25565b6001600360008573ffffffffffffffffffffffffffffffffffffffff1673ffffffffffffffffffffffffffffffffffffffff168152602001908152602001600020600082825461110891906124cb565b925050819055506001600360008473ffffffffffffffffffffffffffffffffffffffff1673ffffffffffffffffffffffffffffffffffffffff168152602001908152602001600020600082825461115f9190612444565b92505081905550816002600083815260200190815260200160002060006101000a81548173ffffffffffffffffffffffffffffffffffffffff021916908373ffffffffffffffffffffffffffffffffffffffff160217905550808273ffffffffffffffffffffffffffffffffffffffff168473ffffffffffffffffffffffffffffffffffffffff167fddf252ad1be2c89b69c2b068fc378daa952ba7f163c4a11628f55a4df523b3ef60405160405180910390a461121e838383611743565b505050565b600073ffffffffffffffffffffffffffffffffffffffff168273ffffffffffffffffffffffffffffffffffffffff161415611293576040517f08c379a000000000000000000000000000000000000000000000000000000000815260040161128a906122bf565b60405180910390fd5b61129c81610db1565b156112dc576040517f08c379a00000000000000000000000000000000000000000000000000000000081526004016112d3906121df565b60405180910390fd5b6112e86000838361173e565b6001600360008473ffffffffffffffffffffffffffffffffffffffff1673ffffffffffffffffffffffffffffffffffffffff16815260200190815260200160002060008282546113389190612444565b92505081905550816002600083815260200190815260200160002060006101000a81548173ffffffffffffffffffffffffffffffffffffffff021916908373ffffffffffffffffffffffffffffffffffffffff160217905550808273ffffffffffffffffffffffffffffffffffffffff16600073ffffffffffffffffffffffffffffffffffffffff167fddf252ad1be2c89b69c2b068fc378daa952ba7f163c4a11628f55a4df523b3ef60405160405180910390a46113f960008383611743565b5050565b8173ffffffffffffffffffffffffffffffffffffffff168373ffffffffffffffffffffffffffffffffffffffff16141561146c576040517f08c379a00000000000000000000000000000000000000000000000000000000081526004016114639061221f565b60405180910390fd5b80600560008573ffffffffffffffffffffffffffffffffffffffff1673ffffffffffffffffffffffffffffffffffffffff16815260200190815260200160002060008473ffffffffffffffffffffffffffffffffffffffff1673ffffffffffffffffffffffffffffffffffffffff16815260200190815260200160002060006101000a81548160ff0219169083151502179055508173ffffffffffffffffffffffffffffffffffffffff168373ffffffffffffffffffffffffffffffffffffffff167f17307eab39ab6107e8899845ad3d59bd9653f200f220920489ca2b5937696c318360405161155d9190612162565b60405180910390a3505050565b611575848484610fbc565b61158184848484611748565b6115c0576040517f08c379a00000000000000000000000000000000000000000000000000000000081526004016115b79061219f565b60405180910390fd5b50505050565b606060405180602001604052806000815250905090565b60606000821415611625576040518060400160405280600181526020017f30000000000000000000000000000000000000000000000000000000000000008152509050611739565b600082905060005b6000821461165757808061164090612618565b915050600a82611650919061249a565b915061162d565b60008167ffffffffffffffff8111156116735761167261274e565b5b6040519080825280601f01601f1916602001820160405280156116a55781602001600182028036833780820191505090505b5090505b60008514611732576001826116be91906124cb565b9150600a856116cd9190612661565b60306116d99190612444565b60f81b8183815181106116ef576116ee61271f565b5b60200101907effffffffffffffffffffffffffffffffffffffffffffffffffffffffffffff1916908160001a905350600a8561172b919061249a565b94506116a9565b8093505050505b919050565b505050565b505050565b60006117698473ffffffffffffffffffffffffffffffffffffffff166118df565b156118d2578373ffffffffffffffffffffffffffffffffffffffff1663150b7a02611792610e1d565b8786866040518563ffffffff1660e01b81526004016117b49493929190612116565b602060405180830381600087803b1580156117ce57600080fd5b505af19250505080156117ff57506040513d601f19601f820116820180604052508101906117fc9190611cde565b60015b611882573d806000811461182f576040519150601f19603f3d011682016040523d82523d6000602084013e611834565b606091505b5060008151141561187a576040517f08c379a00000000000000000000000000000000000000000000000000000000081526004016118719061219f565b60405180910390fd5b805181602001fd5b63150b7a0260e01b7bffffffffffffffffffffffffffffffffffffffffffffffffffffffff1916817bffffffffffffffffffffffffffffffffffffffffffffffffffffffff1916149150506118d7565b600190505b949350505050565b6000808273ffffffffffffffffffffffffffffffffffffffff163b119050919050565b82805461190e906125b5565b90600052602060002090601f0160209004810192826119305760008555611977565b82601f1061194957805160ff1916838001178555611977565b82800160010185558215611977579182015b8281111561197657825182559160200191906001019061195b565b5b5090506119849190611988565b5090565b5b808211156119a1576000816000905550600101611989565b5090565b60006119b86119b38461239f565b61237a565b9050828152602081018484840111156119d4576119d3612782565b5b6119df848285612573565b509392505050565b60006119fa6119f5846123d0565b61237a565b905082815260208101848484011115611a1657611a15612782565b5b611a21848285612573565b509392505050565b600081359050611a3881612b82565b92915050565b600081359050611a4d81612b99565b92915050565b600081359050611a6281612bb0565b92915050565b600081519050611a7781612bb0565b92915050565b600082601f830112611a9257611a9161277d565b5b8135611aa28482602086016119a5565b91505092915050565b600082601f830112611ac057611abf61277d565b5b8135611ad08482602086016119e7565b91505092915050565b600081359050611ae881612bc7565b92915050565b600060208284031215611b0457611b0361278c565b5b6000611b1284828501611a29565b91505092915050565b60008060408385031215611b3257611b3161278c565b5b6000611b4085828601611a29565b9250506020611b5185828601611a29565b9150509250929050565b600080600060608486031215611b7457611b7361278c565b5b6000611b8286828701611a29565b9350506020611b9386828701611a29565b9250506040611ba486828701611ad9565b9150509250925092565b60008060008060808587031215611bc857611bc761278c565b5b6000611bd687828801611a29565b9450506020611be787828801611a29565b9350506040611bf887828801611ad9565b925050606085013567ffffffffffffffff811115611c1957611c18612787565b5b611c2587828801611a7d565b91505092959194509250565b60008060408385031215611c4857611c4761278c565b5b6000611c5685828601611a29565b9250506020611c6785828601611a3e565b9150509250929050565b60008060408385031215611c8857611c8761278c565b5b6000611c9685828601611a29565b9250506020611ca785828601611ad9565b9150509250929050565b600060208284031215611cc757611cc661278c565b5b6000611cd584828501611a53565b91505092915050565b600060208284031215611cf457611cf361278c565b5b6000611d0284828501611a68565b91505092915050565b600060208284031215611d2157611d2061278c565b5b600082013567ffffffffffffffff811115611d3f57611d3e612787565b5b611d4b84828501611aab565b91505092915050565b600060208284031215611d6a57611d6961278c565b5b6000611d7884828501611ad9565b91505092915050565b60008060408385031215611d9857611d9761278c565b5b6000611da685828601611ad9565b925050602083013567ffffffffffffffff811115611dc757611dc6612787565b5b611dd385828601611aab565b9150509250929050565b60008060408385031215611df457611df361278c565b5b6000611e0285828601611ad9565b9250506020611e1385828601611ad9565b9150509250929050565b611e26816124ff565b82525050565b611e3581612511565b82525050565b6000611e4682612401565b611e508185612417565b9350611e60818560208601612582565b611e6981612791565b840191505092915050565b6000611e7f8261240c565b611e898185612428565b9350611e99818560208601612582565b611ea281612791565b840191505092915050565b6000611eb88261240c565b611ec28185612439565b9350611ed2818560208601612582565b80840191505092915050565b6000611eeb603283612428565b9150611ef6826127a2565b604082019050919050565b6000611f0e602583612428565b9150611f19826127f1565b604082019050919050565b6000611f31601c83612428565b9150611f3c82612840565b602082019050919050565b6000611f54602483612428565b9150611f5f82612869565b604082019050919050565b6000611f77601983612428565b9150611f82826128b8565b602082019050919050565b6000611f9a602c83612428565b9150611fa5826128e1565b604082019050919050565b6000611fbd603883612428565b9150611fc882612930565b604082019050919050565b6000611fe0602a83612428565b9150611feb8261297f565b604082019050919050565b6000612003602983612428565b915061200e826129ce565b604082019050919050565b6000612026602083612428565b915061203182612a1d565b602082019050919050565b6000612049602c83612428565b915061205482612a46565b604082019050919050565b600061206c602f83612428565b915061207782612a95565b604082019050919050565b600061208f602183612428565b915061209a82612ae4565b604082019050919050565b60006120b2603183612428565b91506120bd82612b33565b604082019050919050565b6120d181612569565b82525050565b60006120e38285611ead565b91506120ef8284611ead565b91508190509392505050565b60006020820190506121106000830184611e1d565b92915050565b600060808201905061212b6000830187611e1d565b6121386020830186611e1d565b61214560408301856120c8565b81810360608301526121578184611e3b565b905095945050505050565b60006020820190506121776000830184611e2c565b92915050565b600060208201905081810360008301526121978184611e74565b905092915050565b600060208201905081810360008301526121b881611ede565b9050919050565b600060208201905081810360008301526121d881611f01565b9050919050565b600060208201905081810360008301526121f881611f24565b9050919050565b6000602082019050818103600083015261221881611f47565b9050919050565b6000602082019050818103600083015261223881611f6a565b9050919050565b6000602082019050818103600083015261225881611f8d565b9050919050565b6000602082019050818103600083015261227881611fb0565b9050919050565b6000602082019050818103600083015261229881611fd3565b9050919050565b600060208201905081810360008301526122b881611ff6565b9050919050565b600060208201905081810360008301526122d881612019565b9050919050565b600060208201905081810360008301526122f88161203c565b9050919050565b600060208201905081810360008301526123188161205f565b9050919050565b6000602082019050818103600083015261233881612082565b9050919050565b60006020820190508181036000830152612358816120a5565b9050919050565b600060208201905061237460008301846120c8565b92915050565b6000612384612395565b905061239082826125e7565b919050565b6000604051905090565b600067ffffffffffffffff8211156123ba576123b961274e565b5b6123c382612791565b9050602081019050919050565b600067ffffffffffffffff8211156123eb576123ea61274e565b5b6123f482612791565b9050602081019050919050565b600081519050919050565b600081519050919050565b600082825260208201905092915050565b600082825260208201905092915050565b600081905092915050565b600061244f82612569565b915061245a83612569565b9250827fffffffffffffffffffffffffffffffffffffffffffffffffffffffffffffffff0382111561248f5761248e612692565b5b828201905092915050565b60006124a582612569565b91506124b083612569565b9250826124c0576124bf6126c1565b5b828204905092915050565b60006124d682612569565b91506124e183612569565b9250828210156124f4576124f3612692565b5b828203905092915050565b600061250a82612549565b9050919050565b60008115159050919050565b60007fffffffff0000000000000000000000000000000000000000000000000000000082169050919050565b600073ffffffffffffffffffffffffffffffffffffffff82169050919050565b6000819050919050565b82818337600083830152505050565b60005b838110156125a0578082015181840152602081019050612585565b838111156125af576000848401525b50505050565b600060028204905060018216806125cd57607f821691505b602082108114156125e1576125e06126f0565b5b50919050565b6125f082612791565b810181811067ffffffffffffffff8211171561260f5761260e61274e565b5b80604052505050565b600061262382612569565b91507fffffffffffffffffffffffffffffffffffffffffffffffffffffffffffffffff82141561265657612655612692565b5b600182019050919050565b600061266c82612569565b915061267783612569565b925082612687576126866126c1565b5b828206905092915050565b7f4e487b7100000000000000000000000000000000000000000000000000000000600052601160045260246000fd5b7f4e487b7100000000000000000000000000000000000000000000000000000000600052601260045260246000fd5b7f4e487b7100000000000000000000000000000000000000000000000000000000600052602260045260246000fd5b7f4e487b7100000000000000000000000000000000000000000000000000000000600052603260045260246000fd5b7f4e487b7100000000000000000000000000000000000000000000000000000000600052604160045260246000fd5b600080fd5b600080fd5b600080fd5b600080fd5b6000601f19601f8301169050919050565b7f4552433732313a207472616e7366657220746f206e6f6e20455243373231526560008201527f63656976657220696d706c656d656e7465720000000000000000000000000000602082015250565b7f4552433732313a207472616e736665722066726f6d20696e636f72726563742060008201527f6f776e6572000000000000000000000000000000000000000000000000000000602082015250565b7f4552433732313a20746f6b656e20616c7265616479206d696e74656400000000600082015250565b7f4552433732313a207472616e7366657220746f20746865207a65726f2061646460008201527f7265737300000000000000000000000000000000000000000000000000000000602082015250565b7f4552433732313a20617070726f766520746f2063616c6c657200000000000000600082015250565b7f4552433732313a206f70657261746f7220717565727920666f72206e6f6e657860008201527f697374656e7420746f6b656e0000000000000000000000000000000000000000602082015250565b7f4552433732313a20617070726f76652063616c6c6572206973206e6f74206f7760008201527f6e6572206e6f7220617070726f76656420666f7220616c6c0000000000000000602082015250565b7f4552433732313a2062616c616e636520717565727920666f7220746865207a6560008201527f726f206164647265737300000000000000000000000000000000000000000000602082015250565b7f4552433732313a206f776e657220717565727920666f72206e6f6e657869737460008201527f656e7420746f6b656e0000000000000000000000000000000000000000000000602082015250565b7f4552433732313a206d696e7420746f20746865207a65726f2061646472657373600082015250565b7f4552433732313a20617070726f76656420717565727920666f72206e6f6e657860008201527f697374656e7420746f6b656e0000000000000000000000000000000000000000602082015250565b7f4552433732314d657461646174613a2055524920717565727920666f72206e6f60008201527f6e6578697374656e7420746f6b656e0000000000000000000000000000000000602082015250565b7f4552433732313a20617070726f76616c20746f2063757272656e74206f776e6560008201527f7200000000000000000000000000000000000000000000000000000000000000602082015250565b7f4552433732313a207472616e736665722063616c6c6572206973206e6f74206f60008201527f776e6572206e6f7220617070726f766564000000000000000000000000000000602082015250565b612b8b816124ff565b8114612b9657600080fd5b50565b612ba281612511565b8114612bad57600080fd5b50565b612bb98161251d565b8114612bc457600080fd5b50565b612bd081612569565b8114612bdb57600080fd5b5056fea2646970667358221220ce55aa474433408355a606d5f6ff9d25d86d1022c6fab9370208b59d0c84723064736f6c63430008060033",
  "linkReferences": {},
  "deployedLinkReferences": {}
}